{
  "abi": [
    {
      "name": "documents",
      "type": "function",
      "inputs": [
        {
          "name": "",
          "type": "bytes32",
          "internalType": "bytes32"
        }
      ],
      "outputs": [
        {
          "name": "fingerprint",
          "type": "bytes32",
          "internalType": "bytes32"
        },
        {
          "name": "exists",
          "type": "bool",
          "internalType": "bool"
        }
      ],
      "constant": true,
      "stateMutability": "view"
    },
    {
      "name": "addDocument",
      "type": "function",
      "inputs": [
        {
          "name": "_signers",
          "type": "tuple[]",
          "components": [
            {
              "name": "name",
              "type": "bytes32",
              "internalType": "bytes32"
            },
            {
              "name": "id",
              "type": "address",
              "internalType": "address"
            },
            {
              "name": "signature",
              "type": "bytes",
              "internalType": "bytes"
            }
          ],
          "internalType": "struct Documents.Signer[]"
        },
        {
          "name": "_fingerprint",
          "type": "bytes32",
          "internalType": "bytes32"
        }
      ],
      "outputs": [
        {
          "name": "success",
          "type": "bool",
          "internalType": "bool"
        }
      ],
      "stateMutability": "nonpayable"
    },
    {
      "name": "getDocumentSigners",
      "type": "function",
      "inputs": [
        {
          "name": "_fingerprint",
          "type": "bytes32",
          "internalType": "bytes32"
        },
        {
          "name": "index",
          "type": "uint256",
          "internalType": "uint256"
        }
      ],
      "outputs": [
        {
          "name": "",
          "type": "tuple",
          "components": [
            {
              "name": "name",
              "type": "bytes32",
              "internalType": "bytes32"
            },
            {
              "name": "id",
              "type": "address",
              "internalType": "address"
            },
            {
              "name": "signature",
              "type": "bytes",
              "internalType": "bytes"
            }
          ],
          "internalType": "struct Documents.Signer"
        }
      ],
      "constant": true,
      "stateMutability": "view"
    }
  ],
  "devdoc": {
    "methods": {}
  },
  "source": "// SPDX-License-Identifier: MIT\npragma solidity 0.6.0;\npragma experimental ABIEncoderV2;\nimport '@openzeppelin/contracts/cryptography/ECDSA.sol';\n\ncontract Documents {\n  using ECDSA for bytes32;\n\n  mapping(bytes32 => Document) public documents;\n\n  struct Document {\n    Signer[] signers;\n    bytes32 fingerprint;\n    bool exists;\n  }\n\n  struct Signer {\n    bytes32 name;\n    address id;\n    bytes signature;\n  }\n\n  function addDocument(Signer[] memory _signers, bytes32 _fingerprint)\n    public\n    returns (bool success)\n  {\n    require(!documents[_fingerprint].exists, 'Document already exists');\n\n    for (uint256 i = 0; i < _signers.length; i++) {\n      address signer = _fingerprint.toEthSignedMessageHash().recover(\n        _signers[i].signature\n      );\n\n      require(\n        _signers[i].id == signer,\n        'Signature does not corresponds to signer'\n      );\n\n      documents[_fingerprint].signers.push(_signers[i]);\n    }\n\n    documents[_fingerprint].fingerprint = _fingerprint;\n    documents[_fingerprint].exists = true;\n\n    return true;\n  }\n\n  function getDocumentSigners(bytes32 _fingerprint, uint256 index)\n    public\n    view\n    returns (Signer memory)\n  {\n    require(documents[_fingerprint].exists, 'Document does not exists');\n    return documents[_fingerprint].signers[index];\n  }\n}\n",
  "userdoc": {
    "methods": {}
  },
  "bytecode": "0x608060405234801561001057600080fd5b5061113d806100206000396000f3fe608060405234801561001057600080fd5b50600436106100415760003560e01c80632b2805db146100465780633b958fc214610077578063fdf4aaf6146100a7575b600080fd5b610060600480360361005b91908101906109da565b6100d7565b60405161006e929190610ddd565b60405180910390f35b610091600480360361008c9190810190610a03565b610108565b60405161009e9190610f2b565b60405180910390f35b6100c160048036036100bc9190810190610986565b6102b5565b6040516100ce9190610dc2565b60405180910390f35b60006020528060005260406000206000915090508060010154908060020160009054906101000a900460ff16905082565b610110610728565b60008084815260200190815260200160002060020160009054906101000a900460ff16610172576040517f08c379a000000000000000000000000000000000000000000000000000000000815260040161016990610f0b565b60405180910390fd5b600080848152602001908152602001600020600001828154811061019257fe5b9060005260206000209060030201604051806060016040529081600082015481526020016001820160009054906101000a900473ffffffffffffffffffffffffffffffffffffffff1673ffffffffffffffffffffffffffffffffffffffff1673ffffffffffffffffffffffffffffffffffffffff168152602001600282018054600181600116156101000203166002900480601f0160208091040260200160405190810160405280929190818152602001828054600181600116156101000203166002900480156102a45780601f10610279576101008083540402835291602001916102a4565b820191906000526020600020905b81548152906001019060200180831161028757829003601f168201915b505050505081525050905092915050565b600080600083815260200190815260200160002060020160009054906101000a900460ff161561031a576040517f08c379a000000000000000000000000000000000000000000000000000000000815260040161031190610eeb565b60405180910390fd5b60008090505b83518110156104b457600061035d85838151811061033a57fe5b60200260200101516040015161034f86610507565b61053790919063ffffffff16565b90508073ffffffffffffffffffffffffffffffffffffffff1685838151811061038257fe5b60200260200101516020015173ffffffffffffffffffffffffffffffffffffffff16146103e4576040517f08c379a00000000000000000000000000000000000000000000000000000000081526004016103db90610ecb565b60405180910390fd5b60008085815260200190815260200160002060000185838151811061040557fe5b602002602001015190806001815401808255809150506001900390600052602060002090600302016000909190919091506000820151816000015560208201518160010160006101000a81548173ffffffffffffffffffffffffffffffffffffffff021916908373ffffffffffffffffffffffffffffffffffffffff16021790555060408201518160020190805190602001906104a3929190610762565b505050508080600101915050610320565b508160008084815260200190815260200160002060010181905550600160008084815260200190815260200160002060020160006101000a81548160ff0219169083151502179055506001905092915050565b60008160405160200161051a9190610d9c565b604051602081830303815290604052805190602001209050919050565b6000604182511461057d576040517f08c379a000000000000000000000000000000000000000000000000000000000815260040161057490610e6b565b60405180910390fd5b60008060006020850151925060408501519150606085015160001a90507f7fffffffffffffffffffffffffffffff5d576e7357a4501ddfe92f46681b20a08260001c1115610600576040517f08c379a00000000000000000000000000000000000000000000000000000000081526004016105f790610e8b565b60405180910390fd5b601b8160ff16141580156106185750601c8160ff1614155b15610658576040517f08c379a000000000000000000000000000000000000000000000000000000000815260040161064f90610eab565b60405180910390fd5b60006001878386866040516000815260200160405260405161067d9493929190610e06565b6020604051602081039080840390855afa15801561069f573d6000803e3d6000fd5b505050602060405103519050600073ffffffffffffffffffffffffffffffffffffffff168173ffffffffffffffffffffffffffffffffffffffff16141561071b576040517f08c379a000000000000000000000000000000000000000000000000000000000815260040161071290610e4b565b60405180910390fd5b8094505050505092915050565b604051806060016040528060008019168152602001600073ffffffffffffffffffffffffffffffffffffffff168152602001606081525090565b828054600181600116156101000203166002900490600052602060002090601f016020900481019282601f106107a357805160ff19168380011785556107d1565b828001600101855582156107d1579182015b828111156107d05782518255916020019190600101906107b5565b5b5090506107de91906107e2565b5090565b61080491905b808211156108005760008160009055506001016107e8565b5090565b90565b600081359050610816816110c2565b92915050565b600082601f83011261082d57600080fd5b813561084061083b82610f7a565b610f4d565b9150818183526020840193506020810190508360005b83811015610886578135860161086c88826108f9565b845260208401935060208301925050600181019050610856565b5050505092915050565b60008135905061089f816110d9565b92915050565b600082601f8301126108b657600080fd5b81356108c96108c482610fa2565b610f4d565b915080825260208301602083018583830111156108e557600080fd5b6108f0838284611065565b50505092915050565b60006060828403121561090b57600080fd5b6109156060610f4d565b9050600061092584828501610890565b600083015250602061093984828501610807565b602083015250604082013567ffffffffffffffff81111561095957600080fd5b610965848285016108a5565b60408301525092915050565b600081359050610980816110f0565b92915050565b6000806040838503121561099957600080fd5b600083013567ffffffffffffffff8111156109b357600080fd5b6109bf8582860161081c565b92505060206109d085828601610890565b9150509250929050565b6000602082840312156109ec57600080fd5b60006109fa84828501610890565b91505092915050565b60008060408385031215610a1657600080fd5b6000610a2485828601610890565b9250506020610a3585828601610971565b9150509250929050565b610a4881611006565b82525050565b610a5781611018565b82525050565b610a6681611024565b82525050565b610a7581611024565b82525050565b610a8c610a8782611024565b6110a7565b82525050565b6000610a9d82610fce565b610aa78185610fd9565b9350610ab7818560208601611074565b610ac0816110b1565b840191505092915050565b6000610ad8601883610fea565b91507f45434453413a20696e76616c6964207369676e617475726500000000000000006000830152602082019050919050565b6000610b18601f83610fea565b91507f45434453413a20696e76616c6964207369676e6174757265206c656e677468006000830152602082019050919050565b6000610b58601c83610ffb565b91507f19457468657265756d205369676e6564204d6573736167653a0a3332000000006000830152601c82019050919050565b6000610b98602283610fea565b91507f45434453413a20696e76616c6964207369676e6174757265202773272076616c60008301527f75650000000000000000000000000000000000000000000000000000000000006020830152604082019050919050565b6000610bfe602283610fea565b91507f45434453413a20696e76616c6964207369676e6174757265202776272076616c60008301527f75650000000000000000000000000000000000000000000000000000000000006020830152604082019050919050565b6000610c64602883610fea565b91507f5369676e617475726520646f6573206e6f7420636f72726573706f6e6473207460008301527f6f207369676e65720000000000000000000000000000000000000000000000006020830152604082019050919050565b6000610cca601783610fea565b91507f446f63756d656e7420616c7265616479206578697374730000000000000000006000830152602082019050919050565b6000610d0a601883610fea565b91507f446f63756d656e7420646f6573206e6f742065786973747300000000000000006000830152602082019050919050565b6000606083016000830151610d556000860182610a5d565b506020830151610d686020860182610a3f565b5060408301518482036040860152610d808282610a92565b9150508091505092915050565b610d9681611058565b82525050565b6000610da782610b4b565b9150610db38284610a7b565b60208201915081905092915050565b6000602082019050610dd76000830184610a4e565b92915050565b6000604082019050610df26000830185610a6c565b610dff6020830184610a4e565b9392505050565b6000608082019050610e1b6000830187610a6c565b610e286020830186610d8d565b610e356040830185610a6c565b610e426060830184610a6c565b95945050505050565b60006020820190508181036000830152610e6481610acb565b9050919050565b60006020820190508181036000830152610e8481610b0b565b9050919050565b60006020820190508181036000830152610ea481610b8b565b9050919050565b60006020820190508181036000830152610ec481610bf1565b9050919050565b60006020820190508181036000830152610ee481610c57565b9050919050565b60006020820190508181036000830152610f0481610cbd565b9050919050565b60006020820190508181036000830152610f2481610cfd565b9050919050565b60006020820190508181036000830152610f458184610d3d565b905092915050565b6000604051905081810181811067ffffffffffffffff82111715610f7057600080fd5b8060405250919050565b600067ffffffffffffffff821115610f9157600080fd5b602082029050602081019050919050565b600067ffffffffffffffff821115610fb957600080fd5b601f19601f8301169050602081019050919050565b600081519050919050565b600082825260208201905092915050565b600082825260208201905092915050565b600081905092915050565b60006110118261102e565b9050919050565b60008115159050919050565b6000819050919050565b600073ffffffffffffffffffffffffffffffffffffffff82169050919050565b6000819050919050565b600060ff82169050919050565b82818337600083830152505050565b60005b83811015611092578082015181840152602081019050611077565b838111156110a1576000848401525b50505050565b6000819050919050565b6000601f19601f8301169050919050565b6110cb81611006565b81146110d657600080fd5b50565b6110e281611024565b81146110ed57600080fd5b50565b6110f98161104e565b811461110457600080fd5b5056fea26469706673582212206d686f44782ea6164db452b88137d5d8165bfd61842bf62837f2f3dc741d5e1664736f6c63430006000033",
  "compiler": {
    "name": "solc",
    "version": "0.6.0+commit.26b70077.Emscripten.clang"
  },
  "updatedAt": "2020-08-30T06:42:32.242Z",
  "sourcePath": "/home/builduser/teams_workingdir/repo/truffle/contracts/Documents.sol",
  "networkType": "ethereum",
  "contractName": "Documents",
  "schemaVersion": "3.2.4"
}